00011104 Stuttgarter Lebensvers. a.G.  Oertel,Schirin                011020120110201200085869  2.02.02.1                              1.61.6                                                                                    1.1         1200               1
00011104 Stuttgarter Lebensvers. a.G.  Oertel,Schirin                011020120110201200085869                                   1.0                                                                                                                            2
01001104  010       11626029990100085869  2Krumbir                                                     Kerstin                                           D  11111 Felderstadt              Schifferstadter Str. 35               12081954D  01                21
01001104  010       11626029990100085869                                                                  0022234200  67290100                                                                                                                      1    0000002
01001104  010       11626029990100085869                                                                                                                                                                                                                       3
02001104  010       11626029990100085869  201082011010820210108201381  00000000          01082012100000         EUR000000012421                                                                   08000000000000                                   EUR1        1
02001104  010       11626029990100085869                         000000000000015526                                                                                                                                                                            2
02101104  010       11626029990100085869  1EUR0 0000000000001090                                                            00000 00000   00000000000000000000 00000000000000000000000000000000 00000000                                                       1
02101104  010       11626029990100085869    0000000000                              0     000000                                                                                                                                                               2
02201104  010       11626029990100085869  1                0 Batzer                        Roland                        300619561750GeschŠftsfŸhrer/in (ohne körpe100000000                                  000000000000000000            D   00000000       1
02201104  010       11626029990100085869  1                310108201101082021010820120101000000015526000000000000150000 00000001242100000000020                  100000000000000000008010820120000000 00000000000000000065550000000000102012000000000  000000001
02201104  010       11626029990100085869  1                3100000000000000000000000                              00000000000000000000                              000000000000000000000000000000000000                                                       2
02211104  010       11626029990100085869  1                3100000000000000000000150000000000000000000000000000000000000000000000000000000000000000000000000000                                                                                                1
02201104  010       11626029990100085869  1                311                                0000001VN                            100000                                                                                                                      6
9999000000125100085869  00000000083738400000000000000 00000000000000 00000000000000 00000000000000                                                                                                                                                              
