00019999 XXX Versicherung AG           BRBRIENNEE,JÜRGEN             220720042207200499990099991.91.91.92.12.12.12.12.1   1.51.31.62.0      1.51.4                                                                              1.1         1 0000     Z0ZAG0011
00019999 XXX Versicherung AG           BRBRIENNEE,JÜRGEN             220720042207200499990099991.01.01.01.01.0      1.01.01.1      1.01.0                                                                                                              Z0ZAG0022
01009999  030      599999999990199990099992Kitzelpfütze                                                Martina                                           D  52222 Stolberg (Rhld.)         Sebeneteriestr. 44                    11111979D  01            99  21
01009999  030      59999999999019999009999           B4LTTT                                               1111111111  10000000                                                                                                                      1          2
02009999  030      59999999999019999009999201052004010520090105200511  0000000001        01052004100000         EUR000000041141                              0           B4LTTT                   04100001052004                                   EUR1        1
02109999  030      5999999999901999900999910105200401052009010520040901 0000000000000000000 EUR0000000000000000000000000000000411410000000000 0001000                                                      000000                                               
02209999  030      599999999990199990099990000011Kitzelpfütze                  000000Kitzelpfütze                  Martina                       111119791000Hausfrau                      A 1EUR0000000000000000041141010520040000000001052004          1      
02209999  030      59999999999019999009999000001200000000001130500000000000001419500000000000000000000000000000000000000000000000000000000000000000000000010000000000000000 00000000000000000000000000000000000000000000000000000000000000000000000  000000    X
02219999  030      59999999999019999009999000001200000005000000000000250000000000000000000000000000000000000000000000000000000000000000000000000000000000000000000000000000000000000010000000000000000000                                                      X
02209999  030      599999999990199990099993                                  00000000000000000000000000000000000056530000000354880000000000000000000000000000000000000000000000000000000000000000000000000000000000000000000000000000000000000000000000003000001
02219999  030      59999999999019999009999300000000000000                                                                                                                                                                                                3000001
02209999  030      59999999999019999009999000000001        900                               00000                                                                                                                                                       9000000
01009999  030      599999999980199990099991Pollsmann                                                   Rudolf                                            D  50825 Köln                     Elsholunderstr. 10                    11111979D  01            99  11
01009999  030      59999999998019999009999           W45WWW                                               0123456789  10000000                              100221 12345899       200211 123456         300211 345678         410221 445566         1          2
01009999  030      59999999998019999009999420221 777772                                                 50polly(a)example.com                                                                                                                                  3
02009999  030      59999999998019999009999201052004010520090105200581  0000000001        01052004100000         EUR000000002550                              0           W45WWW                   04100001052004                                   EUR1        1
02109999  030      5999999999801999900999910105200401052009010520040901 0000000000000000000 EUR0000000000000000000000000000000024290000000000 0001000                                                      000000                                               
02209999  030      599999999980199990099990000011Pollsmann                     000000Pollsmann                     Rudolf                        111119791000                              A 1EUR0000000000000000002429010520040000000001052004          1      
02209999  030      59999999998019999009999000001200000000001064000000000000001336000000000000000000000000000000000000000000001360000000000000000000000000010000000000000000 00000000000000000000000000000000000000000000000000000000000000000000000  000000    X
02219999  030      59999999998019999009999000001200000006000000000000150000000000000000000000000000000020000000002000000000000000000000000000000000000000000000000000000000000000000010000000000000000000                                                      X
02209999  030      599999999980199990099993                                  00000000000000000000000000000000000005320000000016700000000000000000000000000000000002260000000000000000000000000000000000000000000000000000000000000000000000000000000000003000001
02219999  030      59999999998019999009999300000000000000                                                                                                                                                                                                3000001
02209999  030      59999999998019999009999000000001        900                               00000                                                                                                                                                       9000000
01009999  030      599999999970199990099991Pooosmann                                                   Rudolf                                            D  50825 Köln                     Elsholunderstr. 11                    11111979D  01            99  11
01009999  030      59999999997019999009999           W44WWW                                                                                                 100221 12345899       200211 123457         300211 345679         410221 447788         2          2
01009999  030      59999999997019999009999420221 766662                                                 50poooy(a)example.com                                                                                                                                  3
02009999  030      59999999997019999009999201062004010620090106200511  0000000001        01062004100000         EUR000000036764                              0           W45WWW                   04100001052004                                   EUR1        1
02109999  030      5999999999701999900999910106200401062009010620040901 0000000000000000000 EUR0000000000000000000000000000000367640000000000 0001000                                                      000000                                               
02209999  030      599999999970199990099990000011Pollsmann                     000000Pollsmann                     Rudolf                        111119791000                              A 1EUR0000000000000000012776010620040000000001062004          1      
02209999  030      59999999997019999009999000001200000000000000000000000000001503000000000000000000000000000000000000000000000000000000000000000000000000010000000000000000 00000000000000000000000000000000000000000000000000000000000000000000000  000000    X
02219999  030      59999999997019999009999000001200000000000000000000100000000000000000000000000000000000000000000000000000000000000000000000000000000000000000000000000000000000000010000000000000000000                                                      X
02209999  030      599999999970199990099993                                  00000000000000000000000000000000000000000000000150300000000000000000000000000000000000000000000000000000000000000000000000000000000000000000000000000000000000000000000000003000001
02219999  030      59999999997019999009999300000000000000                                                                                                                                                                                                3000001
02209999  030      59999999997019999009999000000001        900 Martina Kitzekpfütze          00000                                                                                                                                                       9000000
02209999  030      599999999970199990099990000021Kitzelpfütze                  000000Kitzelpfütze                  Martina                       121219792000                              A 1EUR0000000000000000012632010620040000000001062004          1      
02209999  030      59999999997019999009999000002200000000000931000000000000001169000000000000000000000000000000000000000000000000000000000000000000000000010000000000000000 00000000000000000000000000000000000000000000000000000000000000000000000  000000    X
02219999  030      59999999997019999009999000002200000001000000000000100000000000000000000000000000000000000000000000000000000000000000000000000000000000000000000000010000000000000010000000000000000000                                                      X
02209999  030      599999999970199990099993                                  00000000000000000000000000000000000009310000000116900000000000000000000000000000000000000000000000000000000000000000000000000000000000000000000000000000000000000000000000003000002
02219999  030      59999999997019999009999300000000000000                                                                                                                                                                                                3000002
02209999  030      59999999997019999009999000000002        900 die Eltern                    00000                                                                                                                                                       9000000
02209999  030      599999999970199990099990000031Kitzelpfütze                  000000Kitzelpfütze                  Martina                       121219792000                              A 1EUR0000000000000000011356010620040000000001062004          1      
02209999  030      59999999997019999009999000003200000000000000000000000000001336000000000000000000000000000000000000000000000000000000000000000000000000010000000000000000 00000000000000000000000000000000000000000000000000000000000000000000000  000000    X
02219999  030      59999999997019999009999000003200000000000000000000100000000000000000000000000000000000000000000000000000000000000000000000000000000000000000000000000000000000000010000000000000000000                                                      X
02209999  030      599999999970199990099993                                  00000000000000000000000000000000000000000000000133600000000000000000000000000000000000000000000000000000000000000000000000000000000000000000000000000000000000000000000000003000003
02219999  030      59999999997019999009999300000000000000                                                                                                                                                                                                3000003
02209999  030      59999999997019999009999000000003        900 Die Eltern                    00000                                                                                                                                                       9000000
01009999  030      599999999960199990099991Pollimann                                                   Rudolf                                            D  50825 Köln                     Elsholunderstr. 41                    12121979D  01            99  11
01009999  030      59999999996019999009999           W43WWW                                                                                                 100221 12335899       200211 123356         300211 345578         410221 335566         2          2
01009999  030      59999999996019999009999420221 789012                                                 50polli(a)example.com                                                                                                                                  3
02009999  030      59999999996019999009999205052004050520090505200511  0000000001        05052004100000         EUR000000022500                              0           W45WWW                   04100001052004                                   EUR1        1
02109999  030      5999999999601999900999910505200405052009050520040901 0000000000000000000 EUR0000000000000000000000000000000225000000000000 0001000                                                      000000                                               
02209999  030      599999999960199990099990000011Pollsmann                     000000Pollsmann                     Rudolf                        121219791000                              A 1EUR0000000000000000022500050520040000000005052004          1      
02209999  030      59999999996019999009999000001200000000001184220000000000001677600000000000000000000000000000000000000000001578960000000000000000000000010024671000000000 00000000000000000000000000000000000000000000000000000000000000000000000  000000    X
02219999  030      59999999996019999009999000001200000002000000000000060000000000000000000000000000000020000000002000000000004000000000000000000000000000050000000000005000000000000010000000000000000000                                                      X
02209999  030      599999999960199990099993                                  00000000000000000000000000000000000023680000000100660000000000000000000000000000000031580000000000000000000009870000000000000000000049340000000000000000000000000000000000003000001
02219999  030      59999999996019999009999300000000000000                                                                                                                                                                                                3000001
02209999  030      59999999996019999009999000000001        900                               00000                                                                                                                                                       9000000
01009999  040      599999999950199990099991Fresy                                                       Wilhelm                       Dottore             D  50354 Hürth                    Klerikalstr. 33                       12121979D  01            99  11
01009999  040      59999999995019999009999           W45BBB                                                                                                                                                                                         2          2
01009999  040      59999999995019999009999                                                              50wilhelm.fresy(a)example.com                                                                                                                          3
02009999  040      59999999995019999009999204082004010720080107200511  0000000001        04082004100000         EUR000000011250                              0           W45BBB                   03000030072008                                   EUR1        1
02109999  040      599999999950199990099991040820040000000004082004    000000000    000000000    000000000    000000000  0000 EUR0000000000000000000000000000000112500000000000 0000000     000000                                                              
02119999  040      5999999999501999900999900000000000000000000000000000000000000000000000000000000                                                                                                                                                             1
02209999  040      599999999950199990099999001  0119991000000000001EUR00000001125000000000030000000000000000000000000000000000112507000000000 000000000 000000000 0000000003 0000000000000000000000000000004082004                                              
02219999  040      599999999950199990099999001  01100001000000000000000000000000000000000000000000000000000                                                                                                                                                     
02209999  040      599999999950199990099999001  012PHV                                                                                                                                                                                                          
01009999  040      599999999940199990099991Fresy                                                       Wilhelm                       Dottore             D  50354 Hürth                    Klerikalstr. 33                       12121979D  01            99  11
01009999  040      59999999994019999009999           W45BBB                                                                                                                                                                                         2          2
01009999  040      59999999994019999009999                                                              50wilhelm.fresy(a)example.com                                                                                                                          3
02009999  040      59999999994019999009999204082004010820080108200411  0000000001        04082004100000         EUR000000009000                              0           W45BBB                   04000030072004                                   EUR1        1
02109999  040      599999999940199990099991040820040000000004082004    000000000    000000000    000000000    000000000  0000 EUR0000000000000000000000000000000090000000000000 0000000     000000                                                              
02119999  040      5999999999401999900999900000000000000000000000000000000000000000000000000000000                                                                                                                                                             1
02209999  040      599999999940199990099993001  0119991000000000001EUR00000000900000000000030000000000000000000000000000000000090007000000000 000000000 000000000 0000000003 0000000000000000000000000000004082004                                              
02219999  040      599999999940199990099993001  01100001000000000000000000000000000000000000000000000000000                                                                                                                                                     
02209999  040      599999999940199990099993001  0219991000000000001EUR00000000000000000000000000000000000000000000000000000000000007000000000 000000000 000000000 0000000003 0000000000000000000000000000004082004                                              
02219999  040      599999999940199990099993001  02100001000000000000000000000000000000000000000000000000000                                                                                                                                                     
02209999  040      599999999940199990099993001  012Hunde                                                                                                                                                                                                        
02209999  040      599999999940199990099993001  022Hunde                                             Spitzdackelmopski                                                                                                                                          
01009999  040      599999999930199990099991Fresy                                                       Wilhelm                       Dottore             D  50354 Hürth                    Klerikalstr. 33                       12121979D  01            99  11
01009999  040      59999999993019999009999           W45BBB                                                                                                                                                                                         2          2
01009999  040      59999999993019999009999                                                              50wilhelm.fresy(a)example.com                                                                                                                          3
02009999  040      59999999993019999009999204082004010820080108200411  0000000001        04082004100000         EUR000000019810                              0           W45BBB                   04000030072004                                   EUR1        1
02109999  040      599999999930199990099991040820040000000004082004    000000000    000000000    000000000    000000000  0000 EUR0000000000000000000000000000000198100000000000 0000000     000000                                                              
02119999  040      5999999999301999900999900000000000000000000000000000000000000000000000000000000                                                                                                                                                             1
02209999  040      599999999930199990099998007  0111001000000000007EUR00000001981000000000030000000000000000000000000000000000198107000000000 000000000 000000000 0000000003 0000000000000000000000000000004082004                                              
02219999  040      599999999930199990099998007  01100001000000000000000000000000000000000000000000000000000                                                                                                                                                     
02209999  040      599999999930199990099998007  012Haus- und Grundbesitzer                           50354 Hürth;Klerikalstr. 21                                                                                                                                
01009999  040      599999999920199990099991Fresy                                                       Wilhelm                       Dottore             D  50354 Hürth                    Klerikalstr. 33                       12121979D  01            99  11
01009999  040      59999999992019999009999           W45BBB                                                                                                                                                                                         2          2
01009999  040      59999999992019999009999                                                              50wilhelm.fresy(a)example.com                                                                                                                          3
02009999  040      59999999992019999009999204082004010820080108200411  0000000001        04082004100000         EUR000000007640                              0           W45BBB                   04000030072004                                   EUR1        1
02109999  040      599999999920199990099991040820040000000004082004    000000000    000000000    000000000    000000000  0000 EUR0000000000000000000000000000000076400000000000 0000000     000000                                                              
02119999  040      5999999999201999900999900000000000000000000000000000000000000000000000000000000                                                                                                                                                             1
02209999  040      599999999920199990099990200  0119991000000010000EUR00000000764000000000030000000000000000000000000000000000076407000000000 000000000 000000000 0000000000 0000000000000000000000000000004082004                                              
02219999  040      599999999920199990099990200  01100001000000000000000000000000000000000000000000000000000                                                                                                                                                     
02209999  040      599999999920199990099990200  012O-Tank                                            50354 Hürth;Klerikalstr. 21                                                                                                                                
01009999  040      599999999910199990099991Fresy                                                       Wilhelm                       Dottore             D  50354 Hürth                    Klerikalstr. 33                       12121979D  01            99  11
01009999  040      59999999991019999009999           W45BBB                                                                                                                                                                                         2          2
01009999  040      59999999991019999009999                                                              50wilhelm.fresy(a)example.com                                                                                                                          3
02009999  040      59999999991019999009999204082004010920050109200461  0000000001        04082004100000         EUR000000063000                              0           W45BBB                   01000030072004                                   EUR1        1
02109999  040      599999999910199990099992040820040000000004082004    000000000    000000000    000000000    000000000  0000 EUR0000000000000000000000000000000630000000000000 0000000     000000                                                              
02119999  040      5999999999101999900999900000000000000000000000000000000000000000000000000000000                                                                                                                                                             1
02209999  040      599999999910199990099991591  0110061000001000000EUR00000006300000000000030000000000000000000000000000000000630007000000000 000000000 000000000 0000000003 0000000000000000000000000000004082004                                              
02219999  040      599999999910199990099991591  01100001000000000000000000000000000000000000000000000000000                                                                                                                                                     
02209999  040      599999999910199990099991591  012Bauherren                                         50354 Hürth Hopppelfaaa 21                                                                                                                                 
01009999  050      599999999900199990099991Gillensvier                                                 Herbert                                              51145 Köln                     Lympfensittich Str. 44                12121979D  01            99  11
01009999  050      59999999990019999009999           W45KKK                                                                                                                                                                                                    2
01009999  050      59999999990019999009999                                                                                                                                                                                                                     3
02009999  050      59999999990019999009999201072004010120050101200511  0000000000        00000000100000         EUR00000011079500000000                      0           W45KKK                   00000001072004                                   EUR1        1
02109999  050      599999999900199990099991120740VW             1J (GOLF IV 1.9 TDI SYNCR06030551212345621       K-WB 4444   01072004000000000000000EUR0000001107950                                   000000000000000000000000                                1
02119999  050      59999999990019999009999000000000000000000000000                                                                                                                                                                                             1
02209999  051      59999999990019999009999010720040000000000000000R8  16000000000000000000000000000051/2  1150000000000000000000000000000000000003000000 000000004       000000000016 TYPTARIF                                                                  
02219999  051      59999999990019999009999000050000000000000000000000000000000000000000000086687000000000000000000000000000000000000000000000000                                                                                                               1
02209999  053      59999999990019999009999010720040000000000000000R8  7900000000000000000000000000000000000030000220000000000 00000000                                                                                                                          
02219999  053      59999999990019999009999000000017358000000000000000000000000000000000000000000000000                                                                                                                                                         1
02209999  054      599999999900199990099990107200400000000000000001 000000000000000000000000000000000000000000000000000000000000000000000000000000000030000 000000001                                                                                           
02219999  054      5999999999001999900999900000001500000000000030000000000000000000000000000000000000000000045000000000000000000000000000000000000000000000000000000000000000000000000000000006750000000000000000000000000                                     1
01009999  050      599999999890199990099991Gillensdrei                                                 Hans                                                 51145 Köln                     Lympfensittich Str. 99                07071977D  01            99  11
01009999  050      59999999989019999009999           W45HHH                                                                                                                                                                                                    2
01009999  050      59999999989019999009999                                                                                                                                                                                                                     3
02009999  050      59999999989019999009999201072004010120050101200581  0000000000        00000000100000         EUR00000002011600000000                      0           W45HHH                   00000001072004                                   EUR1        1
02109999  050      599999999890199990099992020580MERCEDES                                9999000123456786        K-WB 3333   01072004000000000000000EUR0000000201160                                   000000000000000000000000                                1
02119999  050      59999999989019999009999000000000000000000000000                                                                                                                                                                                             1
02209999  051      59999999989019999009999010720040000000000000000    16000000000000000000000000000050    1000000000000000000000000000000000000003000000 000000007       0000000000                                                                             
02219999  051      59999999989019999009999000050000000000000000000000000000000000000000000012530000000000000000000000000000000000000000000000000                                                                                                               1
02209999  052      59999999989019999009999010720040000000000000000    34050    1000000000000000000000000000000000000003000000  0000000000 0000000020040000000000                                                                                                
02219999  052      59999999989019999009999000000007586000000000000000000000000000000000000000000000000000000000000                                                                                                                                             1
01009999  050      599999999880199990099991Gillenszwei                                                 Herbert                                              51145 Köln                     Lympfensittich Str. 88                07071977D  01            99  11
01009999  050      59999999988019999009999           W45FFF                                                                                                                                                                                                    2
01009999  050      59999999988019999009999                                                              50gillenszwei(a)example.com                                                                                                                            3
02009999  050      59999999988019999009999201072004010120050101200521  0000000000        00000000100000         EUR00000001847800000000                      0           W45FFF                   00000001072004                                   EUR1        1
02109999  050      599999999880199990099990030130BMW                                     9999000123456789        K-WG 2222   01072004000000000000000EUR0000000184780                                   000000000000000000000000                                1
02119999  050      59999999988019999009999000000000000000000000000                                                                                                                                                                                             1
02209999  051      59999999988019999009999010720040000000000000000R2  16000000000000000000000000000050    1000000000000000000000000000000000000003000000 000000004       0000000000                                                                             
02219999  051      59999999988019999009999000050000000000000000000000000000000000000000000004671000000000000000000000000000000000000000000000000                                                                                                               1
02209999  052      59999999988019999009999010720040000000000000000R2  34040    1000000000000000000000000000000000000003000000  0000000000 0000000020040000000000                                                                                                
02219999  052      59999999988019999009999000000013807000000000000000000000000000000000000000000000000000000000000                                                                                                                                             1
01009999  050      599999999870199990099991Gillenseins                                                 Wolfgang                                             51145 Köln                     Lympfensittich Str. 11                07071977D  01            99  11
01009999  050      59999999987019999009999           W45EEE                                                                                                                                                                                                    2
01009999  050      59999999987019999009999                                                              50gillenseins(a)example.com                                                                                                                            3
02009999  050      59999999987019999009999201072004010120050101200521  0000000000        00000000100000         EUR00000010087100000000                      0           W45EEE                   00000002072004                                   EUR1        1
02109999  050      599999999870199990099991120550VW             1HX0 (GOLF)              0600777777654321        K-WG 1111   01072004000000000000000EUR0000001008710                                   000000000000000000000000                                1
02119999  050      59999999987019999009999000000000000000000000000                                                                                                                                                                                             1
02209999  051      59999999987019999009999010720040000000000000000R8  16000000000000000000000000000051/2  1150000000000000000000000000000000000003000000 000000004       000000000017 TYPTARIF                                                                  
02219999  051      59999999987019999009999000050000000000000000000000000000000000000000000045494000000000000000000000000000000000000000000000000                                                                                                               1
02209999  052      59999999987019999009999010720040000000000000000R6  21041/2  1150000000000000000000000000000000000003000000150000000000 0000000020040000000000                                                                                                
02219999  052      59999999987019999009999000000054295000000000000000000000000000000000000000000000000000000000000                                                                                                                                             1
02209999  054      599999999870199990099990107200400000000000000001 000000000000000000000000000000000000000000000000000000000000000000000000000000000030000 00000000                                                                                            
02219999  054      5999999998701999900999900000001000000000000020000000000000000000000000000000000000000000000000000000000000000000000000000000000000000000000000000000000000000000000000000001082000000000000000000000000                                     1
01009999 1000      599999999860199990099991Auszeilerbx                                                 Anton                                             D  21073 Hamburg                  Salb 77                               07071977D  01            99  11
01009999 1000      59999999986019999009999           USKGGG                                               7101266123  37160087                              1002204 304962                                                                          1          2
01009999 1000      59999999986019999009999420221 14845696                                               50juergen.rabennstale(a)example.com                                                                                                                    3
02009999 1000      59999999986019999009999223122002231220042312200411  0000000001        23122002100000         EUR000000016685                              0           USKGGG                   00000023122002                                   EUR1        1
02109999 1040      599999999860199990099991231220020000000023122002    000000000    000000000    000000000    000000000  0000 EUR0000000000000000000000000000000047000000000000 0000000     000000                                                              
02119999 1040      5999999998601999900999900000000000000000000000000000000000000000000000000000000                                                                                                                                                             1
02209999 1040      599999999860199990099999001  0119991000000000001EUR000000004700000000000000000000000000000000000000000000000470040000000003000000000 000000000 0000000002 0000000000000000000000000000023122002                                              
02219999 1040      599999999860199990099999001  01100000002500000000003000000000000000000000000000000000000                                                                                                                                                     
02209999 1040      599999999860199990099999001  012PHV                                                                                                                                                                                                          
02109999 1130      599999999860199990099991000000000000000000000000FELS                                                                      EUR000000000000000000000000000000000000000000011985VHB920       00001033 01100000 00000 000000KOMP 092001     00000
02119999 1130      5999999998601999900999900000000000000                                                                                                                                                                                                   00000
02209999 1130      5999999998601999900999900000000000000000000000000100150000000000000000000000000000000000000000000000000010043000000000000000010000000000000 00000000000001 0000000000000000                                                             00000
02219999 1130      59999999986019999009999   00000006695000                                                                                                                                                                                                00000
02209999 1130      59999999986019999009999000000000000000000000000   00029000000000000000000000000000000000000000000000000001942000000000000000010000000000000 00000000000001 0000000000000000                                                             00000
02219999 1130      59999999986019999009999   00000006695000                                                                                                                                                                                                00000
99990000000162999900999900000000048060000000000000000+00000000000000+00000000000000+00000000000000+                                                                                                                                                    Z0ZAG999 
00011111 xxx-xxxxxxx xxxxxx xxx xxxxxx xxx                           2705200927052009109-77023 1.31.31.31.61.71.71.71.71.5                                                                                          1.31.3      1.1                             

01001111  0501068000901829702001109-60013 2xxxxxxxxxx                                                  xxx                                               x  80333 xüxxxxx                  xxxxxxxxxx. 15                        00000000x  01                  
02001111  0501068000901829702001109-60013 2090820060101201001012010110000000000000000000000000000100000    60013xxx000000014460                              0   01010524920001          0060013  00000000000000                                                
02101111  0501068000901829702001109-60013 1120370xxxxxxxxxx-xx  15 (xx 1600,xxxxxx 1302  06003981552254415       x-xx 113x   080819750013800000000 0xxx000000014460000                              000                                                        1
02101111  0501068000901829702001109-60013      000000xxxxxxxxxxxxxxxxxx xxx xxxxxxx01x  0000000000000000  00000000000000                              000000000000                          091620000000000000000000                                           2
02201111  0511068000901829702001109-60013 090820060000000000000000x11 5200000000000000000000000000007     00000000977000000000000000000000000010020000000000009770       000000000010                                                                           
02201111  0531068000901829702001109-60013 090820060000000000000000x   7200000469000000000000000000000000001050000000000000150000000469                                                                                                                          

01001111  0501068000980093662001109-60013 1xxxxxxxx                                                    xxxxxxx                                           x  22529 xxxxxxx                  xxxxxxxxx 8                           00000000x  01                  
02001111  0501068000980093662001109-60013 2010120050101201001012010110000000000000000000000000000100000    60013xxx000000020080                              0   01125891325001          0060013  00000000000000                                                
02101111  0501068000980093662001109-60013 1120660xxxxxxx        xx 3                     2014999xx 107402        xx-xx 569   010719560026000000000 0xxx000000020080000                              000                                                        1
02101111  0501068000980093662001109-60013      000000xxxxxxxxxxxxxxxxxx xxx xxxxxxx01x  0000000000000000  00000000000000                              000000000000                          020000000000000000000000                                           2
02201111  0511068000980093662001109-60013 010120050000000000000000x10 5200000000000000000000000000005     00000000947000000000000000000000000010020000000000009470       000000000010                                                                           
02201111  0521068000980093662001109-60013 240420070000000000000000x   3708     000000010610000000000000000000000000090600000000000000250000000106120070000000150                                                                                                
01001111  0501068000980096562001109-60013 1xxxx                                                        xxxxxx                                            x  61440 xxxxxxxxx                xx xxxxxxx 14x                        28021957x  01                  
02001111  0501068000980096562001109-60013 2171020060101201001012010110000000000000000000000000000100000    60013xxx000000024780                              0   01141619152001          0060013  00000000000000                                                
02101111  0501068000980096562001109-60013 1120660xxxxxxx        912 (xxxxx)              0583332129010572        xx-xx 99x   210419690016000000000 0xxx000000024780000                              000                                                        1
02101111  0501068000980096562001109-60013      000000xxxxxxxxxxxxxxxxxx xxx xxxxxxx01x  0000000000000000  00000000000000                              000000000000                          064340000000000000000000                                           2
02201111  0511068000980096562001109-60013 171020060000000000000000x   5200000000000000000000000000007     00000001038000000000000000000000000010020000000000010380       000000000011                                                                           
02201111  0521068000980096562001109-60013 171020060000000000000000x   3607     000000014400000000000000000000000000090600000000000000100000000144020060000000150                                                                                                

01001111  0501068000980266092001109-60013 1xxxxxxxx                                                    xxxxxxx                                           x  22529 xxxxxxx                  xxxxxxxxx 8                           00000000x  01                  
02001111  0501068000980266092001109-60013 2140820070101201001012010110000000000000000000000000000100000    60013xxx000000035680                              0   01125891325001          0060013  00000000000000                                                
02101111  0501068000980266092001109-60013 1121650xxxx/xxx       xxxxxxx xxxxxxxx         10289995x09x357075      xx-xx 289x  010719650043000000000 0xxx000000035680000                              000                                                        1
02101111  0501068000980266092001109-60013      000000xxxxxxxxxxxxxxxxxx xxx xxxxxxx01x  0000000000000000  00000000000000                              000000000000                          020000000000000000000000                                           2
02201111  0511068000980266092001109-60013 140820070000000000000000x   5200000000000000000000000000008     00000001538000000000000000000000000010020000000000015380       000000000011                                                                           
02201111  0521068000980266092001109-60013 140820070000000000000000x   3708     000000020300000000000000000000000000090600000000000000250000000203020070000000150                                                                                                
01001111  0501068000980357452001109-60013 1xxxxx                                                       xxxx                                              x  21465 xxxxxxx                  xxxxxxxx 16 x                         29071966x  01                  
02001111  0501068000980357452001109-60013 2200320080101201001012010110000000000000000000000000000100000    60013xxx000000024170                              0   01112624468001          0060013  00000000000000                                                
02101111  0501068000980357452001109-60013 1120440xxxx           xxxxxx-x, (x,xxxxxxx,    00392343172564564       xx-xx 75x   230519770013000000000 0xxx000000024170000                              000                                                        1
02101111  0501068000980357452001109-60013      000000xxxxxxxxxxxxxxxxxx xxx xxxxxxx01x  0000000000000000  00000000000000                              000000000000                          010530000000000000000000                                           2
02201111  0511068000980357452001109-60013 200320080000000000000000x   5200000000000000000000000000009     00000001767000000000000000000000000010070000000000017670       000000000015                                                                           
02201111  0531068000980357452001109-60013 200320080000000000000000x   7200000650000000000000000000000000001080000000000000150000000650                                                                                                                          
99990000031605          00000001833239000000000000000-00000000000000-                                                                                                                                                                                          1
